{
  "_format": "hh-sol-artifact-1",
  "contractName": "MegaPrimates",
  "sourceName": "contracts/final.sol",
  "abi": [
    {
      "inputs": [
        {
          "internalType": "string",
          "name": "_URI",
          "type": "string"
        },
        {
          "internalType": "string",
          "name": "_placeHolderURI",
          "type": "string"
        }
      ],
      "stateMutability": "nonpayable",
      "type": "constructor"
    },
    {
      "anonymous": false,
      "inputs": [
        {
          "indexed": true,
          "internalType": "address",
          "name": "owner",
          "type": "address"
        },
        {
          "indexed": true,
          "internalType": "address",
          "name": "approved",
          "type": "address"
        },
        {
          "indexed": true,
          "internalType": "uint256",
          "name": "tokenId",
          "type": "uint256"
        }
      ],
      "name": "Approval",
      "type": "event"
    },
    {
      "anonymous": false,
      "inputs": [
        {
          "indexed": true,
          "internalType": "address",
          "name": "owner",
          "type": "address"
        },
        {
          "indexed": true,
          "internalType": "address",
          "name": "operator",
          "type": "address"
        },
        {
          "indexed": false,
          "internalType": "bool",
          "name": "approved",
          "type": "bool"
        }
      ],
      "name": "ApprovalForAll",
      "type": "event"
    },
    {
      "anonymous": false,
      "inputs": [
        {
          "indexed": true,
          "internalType": "address",
          "name": "previousOwner",
          "type": "address"
        },
        {
          "indexed": true,
          "internalType": "address",
          "name": "newOwner",
          "type": "address"
        }
      ],
      "name": "OwnershipTransferred",
      "type": "event"
    },
    {
      "anonymous": false,
      "inputs": [
        {
          "indexed": true,
          "internalType": "address",
          "name": "from",
          "type": "address"
        },
        {
          "indexed": true,
          "internalType": "address",
          "name": "to",
          "type": "address"
        },
        {
          "indexed": true,
          "internalType": "uint256",
          "name": "tokenId",
          "type": "uint256"
        }
      ],
      "name": "Transfer",
      "type": "event"
    },
    {
      "anonymous": false,
      "inputs": [
        {
          "indexed": false,
          "internalType": "uint256",
          "name": "tokenId",
          "type": "uint256"
        },
        {
          "indexed": false,
          "internalType": "uint256",
          "name": "mintedCount",
          "type": "uint256"
        },
        {
          "indexed": false,
          "internalType": "address",
          "name": "minter",
          "type": "address"
        }
      ],
      "name": "mint",
      "type": "event"
    },
    {
      "inputs": [
        {
          "internalType": "address[]",
          "name": "userAddress",
          "type": "address[]"
        }
      ],
      "name": "addAdmin",
      "outputs": [],
      "stateMutability": "nonpayable",
      "type": "function"
    },
    {
      "inputs": [
        {
          "internalType": "address[]",
          "name": "wallets",
          "type": "address[]"
        }
      ],
      "name": "addWallets",
      "outputs": [],
      "stateMutability": "nonpayable",
      "type": "function"
    },
    {
      "inputs": [
        {
          "internalType": "address",
          "name": "to",
          "type": "address"
        },
        {
          "internalType": "uint256",
          "name": "tokenId",
          "type": "uint256"
        }
      ],
      "name": "approve",
      "outputs": [],
      "stateMutability": "nonpayable",
      "type": "function"
    },
    {
      "inputs": [
        {
          "internalType": "address",
          "name": "owner",
          "type": "address"
        }
      ],
      "name": "balanceOf",
      "outputs": [
        {
          "internalType": "uint256",
          "name": "",
          "type": "uint256"
        }
      ],
      "stateMutability": "view",
      "type": "function"
    },
    {
      "inputs": [
        {
          "internalType": "string",
          "name": "_URI",
          "type": "string"
        },
        {
          "internalType": "string",
          "name": "_placeholderURI",
          "type": "string"
        }
      ],
      "name": "changeURI",
      "outputs": [],
      "stateMutability": "nonpayable",
      "type": "function"
    },
    {
      "inputs": [
        {
          "internalType": "address",
          "name": "wallet",
          "type": "address"
        }
      ],
      "name": "deleteWallet",
      "outputs": [],
      "stateMutability": "nonpayable",
      "type": "function"
    },
    {
      "inputs": [
        {
          "internalType": "address",
          "name": "deleteaddress",
          "type": "address"
        }
      ],
      "name": "disableAdmin",
      "outputs": [],
      "stateMutability": "nonpayable",
      "type": "function"
    },
    {
      "inputs": [
        {
          "internalType": "address[]",
          "name": "addresses",
          "type": "address[]"
        }
      ],
      "name": "freeMint",
      "outputs": [],
      "stateMutability": "nonpayable",
      "type": "function"
    },
    {
      "inputs": [],
      "name": "getAdmin",
      "outputs": [
        {
          "internalType": "address[]",
          "name": "",
          "type": "address[]"
        }
      ],
      "stateMutability": "view",
      "type": "function"
    },
    {
      "inputs": [
        {
          "internalType": "uint256",
          "name": "tokenId",
          "type": "uint256"
        }
      ],
      "name": "getApproved",
      "outputs": [
        {
          "internalType": "address",
          "name": "",
          "type": "address"
        }
      ],
      "stateMutability": "view",
      "type": "function"
    },
    {
      "inputs": [],
      "name": "getBalance",
      "outputs": [
        {
          "internalType": "uint256",
          "name": "",
          "type": "uint256"
        }
      ],
      "stateMutability": "view",
      "type": "function"
    },
    {
      "inputs": [],
      "name": "getETHBalance",
      "outputs": [
        {
          "internalType": "uint256",
          "name": "",
          "type": "uint256"
        }
      ],
      "stateMutability": "view",
      "type": "function"
    },
    {
      "inputs": [],
      "name": "getLimit",
      "outputs": [
        {
          "internalType": "uint256",
          "name": "",
          "type": "uint256"
        }
      ],
      "stateMutability": "view",
      "type": "function"
    },
    {
      "inputs": [],
      "name": "getMaxSupply",
      "outputs": [
        {
          "internalType": "uint256",
          "name": "",
          "type": "uint256"
        }
      ],
      "stateMutability": "view",
      "type": "function"
    },
    {
      "inputs": [],
      "name": "getMintPrice",
      "outputs": [
        {
          "internalType": "uint256",
          "name": "",
          "type": "uint256"
        }
      ],
      "stateMutability": "view",
      "type": "function"
    },
    {
      "inputs": [],
      "name": "getPublicSale",
      "outputs": [
        {
          "internalType": "bool",
          "name": "",
          "type": "bool"
        }
      ],
      "stateMutability": "view",
      "type": "function"
    },
    {
      "inputs": [],
      "name": "getRecipentWallet",
      "outputs": [
        {
          "internalType": "address[]",
          "name": "",
          "type": "address[]"
        }
      ],
      "stateMutability": "view",
      "type": "function"
    },
    {
      "inputs": [],
      "name": "getWhitelimit",
      "outputs": [
        {
          "internalType": "uint256",
          "name": "",
          "type": "uint256"
        }
      ],
      "stateMutability": "view",
      "type": "function"
    },
    {
      "inputs": [],
      "name": "getWhitelistSale",
      "outputs": [
        {
          "internalType": "bool",
          "name": "",
          "type": "bool"
        }
      ],
      "stateMutability": "view",
      "type": "function"
    },
    {
      "inputs": [],
      "name": "getWhitelistprice",
      "outputs": [
        {
          "internalType": "uint256",
          "name": "",
          "type": "uint256"
        }
      ],
      "stateMutability": "view",
      "type": "function"
    },
    {
      "inputs": [],
      "name": "isAdmin",
      "outputs": [
        {
          "internalType": "bool",
          "name": "",
          "type": "bool"
        }
      ],
      "stateMutability": "view",
      "type": "function"
    },
    {
      "inputs": [
        {
          "internalType": "address",
          "name": "owner",
          "type": "address"
        },
        {
          "internalType": "address",
          "name": "operator",
          "type": "address"
        }
      ],
      "name": "isApprovedForAll",
      "outputs": [
        {
          "internalType": "bool",
          "name": "",
          "type": "bool"
        }
      ],
      "stateMutability": "view",
      "type": "function"
    },
    {
      "inputs": [
        {
          "internalType": "bytes32[]",
          "name": "_merkleProof",
          "type": "bytes32[]"
        }
      ],
      "name": "isWhitelister",
      "outputs": [
        {
          "internalType": "bool",
          "name": "",
          "type": "bool"
        }
      ],
      "stateMutability": "view",
      "type": "function"
    },
    {
      "inputs": [],
      "name": "maxMintAmount",
      "outputs": [
        {
          "internalType": "uint256",
          "name": "",
          "type": "uint256"
        }
      ],
      "stateMutability": "view",
      "type": "function"
    },
    {
      "inputs": [
        {
          "internalType": "address",
          "name": "",
          "type": "address"
        }
      ],
      "name": "mintcount",
      "outputs": [
        {
          "internalType": "uint256",
          "name": "",
          "type": "uint256"
        }
      ],
      "stateMutability": "view",
      "type": "function"
    },
    {
      "inputs": [
        {
          "internalType": "uint256",
          "name": "_mintAmount",
          "type": "uint256"
        },
        {
          "internalType": "bytes32[]",
          "name": "_merkleProof",
          "type": "bytes32[]"
        }
      ],
      "name": "mints",
      "outputs": [],
      "stateMutability": "payable",
      "type": "function"
    },
    {
      "inputs": [],
      "name": "name",
      "outputs": [
        {
          "internalType": "string",
          "name": "",
          "type": "string"
        }
      ],
      "stateMutability": "view",
      "type": "function"
    },
    {
      "inputs": [],
      "name": "nextOwnerToExplicitlySet",
      "outputs": [
        {
          "internalType": "uint256",
          "name": "",
          "type": "uint256"
        }
      ],
      "stateMutability": "view",
      "type": "function"
    },
    {
      "inputs": [],
      "name": "owner",
      "outputs": [
        {
          "internalType": "address",
          "name": "",
          "type": "address"
        }
      ],
      "stateMutability": "view",
      "type": "function"
    },
    {
      "inputs": [
        {
          "internalType": "uint256",
          "name": "tokenId",
          "type": "uint256"
        }
      ],
      "name": "ownerOf",
      "outputs": [
        {
          "internalType": "address",
          "name": "",
          "type": "address"
        }
      ],
      "stateMutability": "view",
      "type": "function"
    },
    {
      "inputs": [],
      "name": "renounceOwnership",
      "outputs": [],
      "stateMutability": "nonpayable",
      "type": "function"
    },
    {
      "inputs": [],
      "name": "reveal",
      "outputs": [],
      "stateMutability": "nonpayable",
      "type": "function"
    },
    {
      "inputs": [
        {
          "internalType": "address",
          "name": "from",
          "type": "address"
        },
        {
          "internalType": "address",
          "name": "to",
          "type": "address"
        },
        {
          "internalType": "uint256",
          "name": "tokenId",
          "type": "uint256"
        }
      ],
      "name": "safeTransferFrom",
      "outputs": [],
      "stateMutability": "nonpayable",
      "type": "function"
    },
    {
      "inputs": [
        {
          "internalType": "address",
          "name": "from",
          "type": "address"
        },
        {
          "internalType": "address",
          "name": "to",
          "type": "address"
        },
        {
          "internalType": "uint256",
          "name": "tokenId",
          "type": "uint256"
        },
        {
          "internalType": "bytes",
          "name": "_data",
          "type": "bytes"
        }
      ],
      "name": "safeTransferFrom",
      "outputs": [],
      "stateMutability": "nonpayable",
      "type": "function"
    },
    {
      "inputs": [
        {
          "internalType": "address",
          "name": "operator",
          "type": "address"
        },
        {
          "internalType": "bool",
          "name": "approved",
          "type": "bool"
        }
      ],
      "name": "setApprovalForAll",
      "outputs": [],
      "stateMutability": "nonpayable",
      "type": "function"
    },
    {
      "inputs": [
        {
          "internalType": "uint256",
          "name": "_newmax",
          "type": "uint256"
        }
      ],
      "name": "setMaxSupply",
      "outputs": [],
      "stateMutability": "nonpayable",
      "type": "function"
    },
    {
      "inputs": [
        {
          "internalType": "bytes32",
          "name": "_root",
          "type": "bytes32"
        },
        {
          "internalType": "uint256",
          "name": "_newCount",
          "type": "uint256"
        }
      ],
      "name": "setWhitelisterInfo",
      "outputs": [],
      "stateMutability": "nonpayable",
      "type": "function"
    },
    {
      "inputs": [
        {
          "internalType": "uint256",
          "name": "newprice",
          "type": "uint256"
        }
      ],
      "name": "setWhitelistprice",
      "outputs": [],
      "stateMutability": "nonpayable",
      "type": "function"
    },
    {
      "inputs": [
        {
          "internalType": "bool",
          "name": "start",
          "type": "bool"
        }
      ],
      "name": "setWhitelistsale",
      "outputs": [],
      "stateMutability": "nonpayable",
      "type": "function"
    },
    {
      "inputs": [
        {
          "internalType": "bool",
          "name": "start",
          "type": "bool"
        }
      ],
      "name": "startSale",
      "outputs": [],
      "stateMutability": "nonpayable",
      "type": "function"
    },
    {
      "inputs": [
        {
          "internalType": "bytes4",
          "name": "interfaceId",
          "type": "bytes4"
        }
      ],
      "name": "supportsInterface",
      "outputs": [
        {
          "internalType": "bool",
          "name": "",
          "type": "bool"
        }
      ],
      "stateMutability": "view",
      "type": "function"
    },
    {
      "inputs": [],
      "name": "symbol",
      "outputs": [
        {
          "internalType": "string",
          "name": "",
          "type": "string"
        }
      ],
      "stateMutability": "view",
      "type": "function"
    },
    {
      "inputs": [
        {
          "internalType": "uint256",
          "name": "index",
          "type": "uint256"
        }
      ],
      "name": "tokenByIndex",
      "outputs": [
        {
          "internalType": "uint256",
          "name": "",
          "type": "uint256"
        }
      ],
      "stateMutability": "view",
      "type": "function"
    },
    {
      "inputs": [
        {
          "internalType": "address",
          "name": "owner",
          "type": "address"
        },
        {
          "internalType": "uint256",
          "name": "index",
          "type": "uint256"
        }
      ],
      "name": "tokenOfOwnerByIndex",
      "outputs": [
        {
          "internalType": "uint256",
          "name": "",
          "type": "uint256"
        }
      ],
      "stateMutability": "view",
      "type": "function"
    },
    {
      "inputs": [
        {
          "internalType": "uint256",
          "name": "tokenId",
          "type": "uint256"
        }
      ],
      "name": "tokenURI",
      "outputs": [
        {
          "internalType": "string",
          "name": "",
          "type": "string"
        }
      ],
      "stateMutability": "view",
      "type": "function"
    },
    {
      "inputs": [
        {
          "internalType": "address",
          "name": "_owner",
          "type": "address"
        }
      ],
      "name": "tokensOfOwner",
      "outputs": [
        {
          "internalType": "uint256[]",
          "name": "",
          "type": "uint256[]"
        }
      ],
      "stateMutability": "view",
      "type": "function"
    },
    {
      "inputs": [],
      "name": "totalSupply",
      "outputs": [
        {
          "internalType": "uint256",
          "name": "",
          "type": "uint256"
        }
      ],
      "stateMutability": "view",
      "type": "function"
    },
    {
      "inputs": [
        {
          "internalType": "address",
          "name": "from",
          "type": "address"
        },
        {
          "internalType": "address",
          "name": "to",
          "type": "address"
        },
        {
          "internalType": "uint256",
          "name": "tokenId",
          "type": "uint256"
        }
      ],
      "name": "transferFrom",
      "outputs": [],
      "stateMutability": "nonpayable",
      "type": "function"
    },
    {
      "inputs": [
        {
          "internalType": "address",
          "name": "newOwner",
          "type": "address"
        }
      ],
      "name": "transferOwnership",
      "outputs": [],
      "stateMutability": "nonpayable",
      "type": "function"
    },
    {
      "inputs": [
        {
          "internalType": "uint256",
          "name": "newCount",
          "type": "uint256"
        }
      ],
      "name": "updateFreeMintCount",
      "outputs": [],
      "stateMutability": "nonpayable",
      "type": "function"
    },
    {
      "inputs": [
        {
          "internalType": "uint256",
          "name": "mintPrice",
          "type": "uint256"
        }
      ],
      "name": "updateMintPrice",
      "outputs": [],
      "stateMutability": "nonpayable",
      "type": "function"
    },
    {
      "inputs": [
        {
          "internalType": "uint256",
          "name": "_tokenLimit",
          "type": "uint256"
        }
      ],
      "name": "updateTokenLimit",
      "outputs": [],
      "stateMutability": "nonpayable",
      "type": "function"
    },
    {
      "inputs": [
        {
          "internalType": "uint256",
          "name": "_tokenLimit",
          "type": "uint256"
        }
      ],
      "name": "updateWhiteLimit",
      "outputs": [],
      "stateMutability": "nonpayable",
      "type": "function"
    },
    {
      "inputs": [
        {
          "internalType": "address",
          "name": "receiver",
          "type": "address"
        },
        {
          "internalType": "uint256",
          "name": "amount",
          "type": "uint256"
        }
      ],
      "name": "withdrawAll",
      "outputs": [],
      "stateMutability": "nonpayable",
      "type": "function"
    }
  ],
  "bytecode": "0x60a0604052600160009081556007556122b8600a556005600e8190556002600f5560105567016345785d8a00006011556701bc16d674ec80006012556013805462ffffff1916905560646014553480156200005957600080fd5b5060405162003dc238038062003dc28339810160408190526200007c9162000344565b60405180604001604052806011815260200170135959d848141c9a5b585d195cc8139195607a1b8152506040518060400160405280600281526020016104d560f41b81525060105460008111620001295760405162461bcd60e51b815260206004820152602760248201527f455243373231413a206d61782062617463682073697a65206d757374206265206044820152666e6f6e7a65726f60c81b606482015260840160405180910390fd5b82516200013e906001906020860190620001d1565b50815162000154906002906020850190620001d1565b506080525050600880546001600160a01b0319163390811790915560405181906000907f8be0079c531659141344cd1fd0a4f28419497f9722a3daafe3b4186f6b6457e0908290a3508151620001b2906019906020850190620001d1565b508051620001c890601a906020840190620001d1565b505050620003eb565b828054620001df90620003ae565b90600052602060002090601f0160209004810192826200020357600085556200024e565b82601f106200021e57805160ff19168380011785556200024e565b828001600101855582156200024e579182015b828111156200024e57825182559160200191906001019062000231565b506200025c92915062000260565b5090565b5b808211156200025c576000815560010162000261565b634e487b7160e01b600052604160045260246000fd5b600082601f8301126200029f57600080fd5b81516001600160401b0380821115620002bc57620002bc62000277565b604051601f8301601f19908116603f01168101908282118183101715620002e757620002e762000277565b816040528381526020925086838588010111156200030457600080fd5b600091505b8382101562000328578582018301518183018401529082019062000309565b838211156200033a5760008385830101525b9695505050505050565b600080604083850312156200035857600080fd5b82516001600160401b03808211156200037057600080fd5b6200037e868387016200028d565b935060208501519150808211156200039557600080fd5b50620003a4858286016200028d565b9150509250929050565b600181811c90821680620003c357607f821691505b60208210811415620003e557634e487b7160e01b600052602260045260246000fd5b50919050565b6080516139ad62000415600039600081816128a2015281816128cc0152612d2d01526139ad6000f3fe6080604052600436106103345760003560e01c80636e9960c3116101ab578063a475b5dd116100f7578063cc6dbc2711610095578063d7228a401161006f578063d7228a4014610920578063db7f771114610940578063e985e9c514610960578063f2fde38b146109a957600080fd5b8063cc6dbc27146108ca578063d3ea9819146108ea578063d7224ba01461090a57600080fd5b8063b295a00e116100d1578063b295a00e14610860578063b6db75a014610875578063b88d4fde1461088a578063c87b56dd146108aa57600080fd5b8063a475b5dd14610816578063a7f93ebd1461082b578063ab4eb3621461084057600080fd5b80638462151c1161016457806395d89b411161013e57806395d89b41146107945780639c4c557c146107a9578063a1156b88146107c9578063a22cb465146107f657600080fd5b80638462151c146107295780638da5cb5b1461075657806392be5dcc1461077457600080fd5b80636e9960c31461067f5780636f8b44b01461069457806370a08231146106b4578063715018a6146106d4578063751e9a9c146106e95780637b9734f51461070957600080fd5b80633d0950a81161028557806353f2b7cd11610223578063651561e0116101fd578063651561e0146106155780636753db3f14610635578063685fc069146106485780636e9472981461066a57600080fd5b806353f2b7cd146105b55780635f93b125146105d55780636352211e146105f557600080fd5b80634ad9b1c31161025f5780634ad9b1c3146105485780634bf53055146105685780634c0f38c2146105805780634f6ccce71461059557600080fd5b80633d0950a8146104f357806342842e0e146105135780634368a7af1461053357600080fd5b806312065fe0116102f257806323b872dd116102cc57806323b872dd146104765780632f745c591461049657806334318f23146104b65780633bc996c5146104d657600080fd5b806312065fe01461042957806318160ddd1461044b578063239c70ae1461046057600080fd5b8062728e461461033957806301ffc9a71461035b57806304bec4231461039057806306fdde03146103af578063081812fc146103d1578063095ea7b314610409575b600080fd5b34801561034557600080fd5b50610359610354366004612fda565b6109c9565b005b34801561036757600080fd5b5061037b61037636600461300c565b610a0b565b60405190151581526020015b60405180910390f35b34801561039c57600080fd5b506011545b604051908152602001610387565b3480156103bb57600080fd5b506103c4610a78565b6040516103879190613081565b3480156103dd57600080fd5b506103f16103ec366004612fda565b610b0a565b6040516001600160a01b039091168152602001610387565b34801561041557600080fd5b506103596104243660046130b0565b610b95565b34801561043557600080fd5b50336000908152600d60205260409020546103a1565b34801561045757600080fd5b506103a1610cad565b34801561046c57600080fd5b506103a160105481565b34801561048257600080fd5b506103596104913660046130da565b610cc3565b3480156104a257600080fd5b506103a16104b13660046130b0565b610cce565b3480156104c257600080fd5b506103596104d13660046131d3565b610e45565b3480156104e257600080fd5b50601354610100900460ff1661037b565b3480156104ff57600080fd5b5061035961050e366004613281565b610ea0565b34801561051f57600080fd5b5061035961052e3660046130da565b610fe4565b34801561053f57600080fd5b50600f546103a1565b34801561055457600080fd5b506103596105633660046132c2565b610fff565b34801561057457600080fd5b5060135460ff1661037b565b34801561058c57600080fd5b50600a546103a1565b3480156105a157600080fd5b506103a16105b0366004612fda565b6110a8565b3480156105c157600080fd5b506103596105d036600461336e565b611110565b3480156105e157600080fd5b506103596105f0366004612fda565b611273565b34801561060157600080fd5b506103f1610610366004612fda565b6112ac565b34801561062157600080fd5b50610359610630366004613399565b6112be565b6103596106433660046133b4565b61130c565b34801561065457600080fd5b5061065d6117d3565b60405161038791906133ff565b34801561067657600080fd5b506103a1611869565b34801561068b57600080fd5b5061065d6118a2565b3480156106a057600080fd5b506103596106af366004612fda565b611937565b3480156106c057600080fd5b506103a16106cf36600461336e565b611970565b3480156106e057600080fd5b50610359611a01565b3480156106f557600080fd5b5061035961070436600461336e565b611a75565b34801561071557600080fd5b50610359610724366004612fda565b611bc6565b34801561073557600080fd5b5061074961074436600461336e565b611bff565b604051610387919061344c565b34801561076257600080fd5b506008546001600160a01b03166103f1565b34801561078057600080fd5b5061035961078f366004613484565b611cbd565b3480156107a057600080fd5b506103c4611cfc565b3480156107b557600080fd5b506103596107c4366004613399565b611d0b565b3480156107d557600080fd5b506103a16107e436600461336e565b600d6020526000908152604090205481565b34801561080257600080fd5b506103596108113660046134a6565b611d52565b34801561082257600080fd5b50610359611e17565b34801561083757600080fd5b506012546103a1565b34801561084c57600080fd5b5061035961085b3660046132c2565b611e5e565b34801561086c57600080fd5b50600e546103a1565b34801561088157600080fd5b5061037b611f3a565b34801561089657600080fd5b506103596108a53660046134d9565b611f84565b3480156108b657600080fd5b506103c46108c5366004612fda565b611fb7565b3480156108d657600080fd5b506103596108e53660046130b0565b6120c6565b3480156108f657600080fd5b50610359610905366004612fda565b61221d565b34801561091657600080fd5b506103a160075481565b34801561092c57600080fd5b5061035961093b366004612fda565b612256565b34801561094c57600080fd5b5061037b61095b366004613281565b61228f565b34801561096c57600080fd5b5061037b61097b366004613554565b6001600160a01b03918216600090815260066020908152604080832093909416825291909152205460ff1690565b3480156109b557600080fd5b506103596109c436600461336e565b612353565b336000908152600b602052604090205460ff161515600114610a065760405162461bcd60e51b81526004016109fd9061357e565b60405180910390fd5b601255565b60006001600160e01b031982166380ac58cd60e01b1480610a3c57506001600160e01b03198216635b5e139f60e01b145b80610a5757506001600160e01b0319821663780e9d6360e01b145b80610a7257506301ffc9a760e01b6001600160e01b03198316145b92915050565b606060018054610a87906135a9565b80601f0160208091040260200160405190810160405280929190818152602001828054610ab3906135a9565b8015610b005780601f10610ad557610100808354040283529160200191610b00565b820191906000526020600020905b815481529060010190602001808311610ae357829003601f168201915b5050505050905090565b6000610b17826000541190565b610b795760405162461bcd60e51b815260206004820152602d60248201527f455243373231413a20617070726f76656420717565727920666f72206e6f6e6560448201526c3c34b9ba32b73a103a37b5b2b760991b60648201526084016109fd565b506000908152600560205260409020546001600160a01b031690565b6000610ba0826112ac565b9050806001600160a01b0316836001600160a01b03161415610c0f5760405162461bcd60e51b815260206004820152602260248201527f455243373231413a20617070726f76616c20746f2063757272656e74206f776e60448201526132b960f11b60648201526084016109fd565b336001600160a01b0382161480610c2b5750610c2b813361097b565b610c9d5760405162461bcd60e51b815260206004820152603960248201527f455243373231413a20617070726f76652063616c6c6572206973206e6f74206f60448201527f776e6572206e6f7220617070726f76656420666f7220616c6c0000000000000060648201526084016109fd565b610ca883838361243e565b505050565b60006001600054610cbe91906135f4565b905090565b610ca883838361249a565b6000610cd983611970565b8210610d325760405162461bcd60e51b815260206004820152602260248201527f455243373231413a206f776e657220696e646578206f7574206f6620626f756e604482015261647360f01b60648201526084016109fd565b6000610d3c610cad565b905060008060005b83811015610de5576000818152600360209081526040918290208251808401909352546001600160a01b038116808452600160a01b9091046001600160401b03169183019190915215610d9657805192505b876001600160a01b0316836001600160a01b03161415610dd25786841415610dc457509350610a7292505050565b83610dce8161360b565b9450505b5080610ddd8161360b565b915050610d44565b5060405162461bcd60e51b815260206004820152602e60248201527f455243373231413a20756e61626c6520746f2067657420746f6b656e206f662060448201526d0deeedccae440c4f240d2dcc8caf60931b60648201526084016109fd565b336000908152600b602052604090205460ff161515600114610e795760405162461bcd60e51b81526004016109fd9061357e565b8151610e8c906019906020850190612f4a565b508051610ca890601a906020840190612f4a565b6008546001600160a01b03163314610eca5760405162461bcd60e51b81526004016109fd90613626565b60005b81811015610ca857600b6000848484818110610eeb57610eeb61365b565b9050602002016020810190610f00919061336e565b6001600160a01b0316815260208101919091526040016000205460ff16610f7d57600c838383818110610f3557610f3561365b565b9050602002016020810190610f4a919061336e565b81546001810183556000928352602090922090910180546001600160a01b0319166001600160a01b039092169190911790555b6001600b6000858585818110610f9557610f9561365b565b9050602002016020810190610faa919061336e565b6001600160a01b031681526020810191909152604001600020805460ff191691151591909117905580610fdc8161360b565b915050610ecd565b610ca883838360405180602001604052806000815250611f84565b336000908152600b602052604090205460ff1615156001146110335760405162461bcd60e51b81526004016109fd9061357e565b4260165560005b81518110156110a45760158282815181106110575761105761365b565b60209081029190910181015182546001810184556000938452919092200180546001600160a01b0319166001600160a01b039092169190911790558061109c8161360b565b91505061103a565b5050565b60006110b2610cad565b821061110c5760405162461bcd60e51b815260206004820152602360248201527f455243373231413a20676c6f62616c20696e646578206f7574206f6620626f756044820152626e647360e81b60648201526084016109fd565b5090565b336000908152600b602052604090205460ff1615156001146111445760405162461bcd60e51b81526004016109fd9061357e565b6000805b6015548110156111a057826001600160a01b03166015828154811061116f5761116f61365b565b6000918252602090912001546001600160a01b0316141561118e578091505b806111988161360b565b915050611148565b505b6015546111b1906001906135f4565b81101561123c5760156111c5826001613671565b815481106111d5576111d561365b565b600091825260209091200154601580546001600160a01b0390921691839081106112015761120161365b565b600091825260209091200180546001600160a01b0319166001600160a01b0392909216919091179055806112348161360b565b9150506111a2565b601580548061124d5761124d613689565b600082815260209020810160001990810180546001600160a01b03191690550190555050565b336000908152600b602052604090205460ff1615156001146112a75760405162461bcd60e51b81526004016109fd9061357e565b600e55565b60006112b782612820565b5192915050565b336000908152600b602052604090205460ff1615156001146112f25760405162461bcd60e51b81526004016109fd9061357e565b601380549115156101000261ff0019909216919091179055565b600083116113555760405162461bcd60e51b815260206004820152601660248201527553656c6563742031206f72206d6f7265204e4654277360501b60448201526064016109fd565b600a5483611361610cad565b61136b9190613671565b11156113b95760405162461bcd60e51b815260206004820152601a60248201527f4d617820537570706c79206f66204e465473205265616368656400000000000060448201526064016109fd565b601354610100900460ff16806113d1575060135460ff165b6114105760405162461bcd60e51b815260206004820152601060248201526f135a5b9d1a5b99c8111a5cd8589b195960821b60448201526064016109fd565b604080516bffffffffffffffffffffffff193360601b166020808301919091528251808303601401815260349092019092528051910120601354610100900460ff16156116b25783601154611465919061369f565b3410156114845760405162461bcd60e51b81526004016109fd906136be565b600f54336000908152600d60205260409020546114a2908690613671565b11156115015760405162461bcd60e51b815260206004820152602860248201527f596f752776652072656163686564207468652077686974656c697374206d696e6044820152673a103634b6b4ba1760c11b60648201526084016109fd565b6018546014546115119190613671565b8461151a610cad565b6115249190613671565b11156115805760405162461bcd60e51b815260206004820152602560248201527f204d617820537570706c79206f662077686974656c697374204e4654732052656044820152641858da195960da1b60648201526084016109fd565b6115c18383808060200260200160405190810160405280939291908181526020018383602002808284376000920191909152505060175491508490506129c9565b61160d5760405162461bcd60e51b815260206004820152601d60248201527f596f7520617265206e6f7420696e207468652077686974656c6973742100000060448201526064016109fd565b336000908152600d60205260408120805486929061162c908490613671565b9091555061163c905033856129df565b7fe7d3fe6b7003793af2367ae7ee6665fe97552f6001ffbf07f3d699452d28d80f611665610cad565b6040805191825260208201879052339082015260600160405180910390a16018546014546116939190613671565b61169b610cad565b14156116ad576013805461ff00191690555b6117cd565b60135460ff16156117cd57836012546116cb919061369f565b3410156116ea5760405162461bcd60e51b81526004016109fd906136be565b600e54336000908152600d6020526040902054611708908690613671565b11156117565760405162461bcd60e51b815260206004820152601e60248201527f596f75277665207265616368656420746865206d696e74206c696d69742e000060448201526064016109fd565b336000908152600d602052604081208054869290611775908490613671565b90915550611785905033856129df565b7fe7d3fe6b7003793af2367ae7ee6665fe97552f6001ffbf07f3d699452d28d80f6117ae610cad565b6040805191825260208201879052339082015260600160405180910390a15b50505050565b336000908152600b602052604090205460609060ff16151560011461180a5760405162461bcd60e51b81526004016109fd9061357e565b6015805480602002602001604051908101604052809291908181526020018280548015610b0057602002820191906000526020600020905b81546001600160a01b03168152600190910190602001808311611842575050505050905090565b336000908152600b602052604081205460ff16151560011461189d5760405162461bcd60e51b81526004016109fd9061357e565b504790565b336000908152600b602052604090205460609060ff1615156001146118d95760405162461bcd60e51b81526004016109fd9061357e565b600c805480602002602001604051908101604052809291908181526020018280548015610b00576020028201919060005260206000209081546001600160a01b03168152600190910190602001808311611842575050505050905090565b336000908152600b602052604090205460ff16151560011461196b5760405162461bcd60e51b81526004016109fd9061357e565b600a55565b60006001600160a01b0382166119dc5760405162461bcd60e51b815260206004820152602b60248201527f455243373231413a2062616c616e636520717565727920666f7220746865207a60448201526a65726f206164647265737360a81b60648201526084016109fd565b506001600160a01b03166000908152600460205260409020546001600160801b031690565b6008546001600160a01b03163314611a2b5760405162461bcd60e51b81526004016109fd90613626565b6008546040516000916001600160a01b0316907f8be0079c531659141344cd1fd0a4f28419497f9722a3daafe3b4186f6b6457e0908390a3600880546001600160a01b0319169055565b6008546001600160a01b03163314611a9f5760405162461bcd60e51b81526004016109fd90613626565b6001600160a01b0381166000908152600b60205260408120805460ff19169055805b600c54811015611b1957826001600160a01b0316600c8281548110611ae857611ae861365b565b6000918252602090912001546001600160a01b03161415611b07578091505b80611b118161360b565b915050611ac1565b505b600c54611b2a906001906135f4565b811015611bb557600c611b3e826001613671565b81548110611b4e57611b4e61365b565b600091825260209091200154600c80546001600160a01b039092169183908110611b7a57611b7a61365b565b600091825260209091200180546001600160a01b0319166001600160a01b039290921691909117905580611bad8161360b565b915050611b1b565b600c80548061124d5761124d613689565b336000908152600b602052604090205460ff161515600114611bfa5760405162461bcd60e51b81526004016109fd9061357e565b601155565b60606000611c0c83611970565b905080611c2d5760408051600080825260208201909252905b509392505050565b6000816001600160401b03811115611c4757611c47613116565b604051908082528060200260200182016040528015611c70578160200160208202803683370190505b50905060005b82811015611c2557611c888582610cce565b828281518110611c9a57611c9a61365b565b602090810291909101015280611caf8161360b565b915050611c76565b50919050565b336000908152600b602052604090205460ff161515600114611cf15760405162461bcd60e51b81526004016109fd9061357e565b601791909155601855565b606060028054610a87906135a9565b336000908152600b602052604090205460ff161515600114611d3f5760405162461bcd60e51b81526004016109fd9061357e565b6013805460ff1916911515919091179055565b6001600160a01b038216331415611dab5760405162461bcd60e51b815260206004820152601a60248201527f455243373231413a20617070726f766520746f2063616c6c657200000000000060448201526064016109fd565b3360008181526006602090815260408083206001600160a01b03871680855290835292819020805460ff191686151590811790915590519081529192917f17307eab39ab6107e8899845ad3d59bd9653f200f220920489ca2b5937696c31910160405180910390a35050565b336000908152600b602052604090205460ff161515600114611e4b5760405162461bcd60e51b81526004016109fd9061357e565b6013805462ff0000191662010000179055565b336000908152600b602052604090205460ff161515600114611e925760405162461bcd60e51b81526004016109fd9061357e565b805160145481611ea0610cad565b611eaa9190613671565b1115611ef85760405162461bcd60e51b815260206004820152601f60248201527f4d617820537570706c79206f662046726565204e46547320526561636865640060448201526064016109fd565b60005b8251811015610ca857611f28838281518110611f1957611f1961365b565b602002602001015160016129df565b80611f328161360b565b915050611efb565b6000611f4e6008546001600160a01b031690565b6001600160a01b0316336001600160a01b03161415611f6d5750600190565b50336000908152600b602052604090205460ff1690565b611f8f84848461249a565b611f9b848484846129f9565b6117cd5760405162461bcd60e51b81526004016109fd9061370c565b6060611fc4826000541190565b6120285760405162461bcd60e51b815260206004820152602f60248201527f4552433732314d657461646174613a2055524920717565727920666f72206e6f60448201526e3732bc34b9ba32b73a103a37b5b2b760891b60648201526084016109fd565b60135462010000900460ff1661206a57601a61204383612af8565b60405160200161205492919061377b565b6040516020818303038152906040529050919050565b6000612074612bf5565b9050600081511161209457604051806020016040528060008152506120bf565b8061209e84612af8565b6040516020016120af929190613836565b6040516020818303038152906040525b9392505050565b336000908152600b602052604090205460ff1615156001146120fa5760405162461bcd60e51b81526004016109fd9061357e565b620151806016544261210c91906135f4565b1161217f5760405162461bcd60e51b815260206004820152603d60248201527f596f752063616e6e6f7420776974686472617720746f20746869732077616c6c60448201527f6574207965742e20506c65617365207761697420323420686f7572732e00000060648201526084016109fd565b478111156121e75760405162461bcd60e51b815260206004820152602f60248201527f496e76616c696420616d6f756e742e204e6f7420656e6f75676820455448206960448201526e37103a34329031b7b73a3930b1ba1760891b60648201526084016109fd565b6040516001600160a01b0383169082156108fc029083906000818181858888f19350505050158015610ca8573d6000803e3d6000fd5b336000908152600b602052604090205460ff1615156001146122515760405162461bcd60e51b81526004016109fd9061357e565b600f55565b336000908152600b602052604090205460ff16151560011461228a5760405162461bcd60e51b81526004016109fd9061357e565b601455565b6040516bffffffffffffffffffffffff193360601b166020820152600090819060340160405160208183030381529060405280519060200120905061230b8484808060200260200160405190810160405280939291908181526020018383602002808284376000920191909152505060175491508490506129c9565b6123495760405162461bcd60e51b815260206004820152600f60248201526e2bb434ba32b634b9ba1022b93937b960891b60448201526064016109fd565b5060019392505050565b6008546001600160a01b0316331461237d5760405162461bcd60e51b81526004016109fd90613626565b6001600160a01b0381166123e25760405162461bcd60e51b815260206004820152602660248201527f4f776e61626c653a206e6577206f776e657220697320746865207a65726f206160448201526564647265737360d01b60648201526084016109fd565b6008546040516001600160a01b038084169216907f8be0079c531659141344cd1fd0a4f28419497f9722a3daafe3b4186f6b6457e090600090a3600880546001600160a01b0319166001600160a01b0392909216919091179055565b60008281526005602052604080822080546001600160a01b0319166001600160a01b0387811691821790925591518593918516917f8c5be1e5ebec7d5bd14f71427d1e84f3dd0314c0f7b2291e5b200ac8c7c3b92591a4505050565b60006124a582612820565b80519091506000906001600160a01b0316336001600160a01b031614806124dc5750336124d184610b0a565b6001600160a01b0316145b806124ee575081516124ee903361097b565b9050806125585760405162461bcd60e51b815260206004820152603260248201527f455243373231413a207472616e736665722063616c6c6572206973206e6f74206044820152711bdddb995c881b9bdc88185c1c1c9bdd995960721b60648201526084016109fd565b846001600160a01b031682600001516001600160a01b0316146125cc5760405162461bcd60e51b815260206004820152602660248201527f455243373231413a207472616e736665722066726f6d20696e636f72726563746044820152651037bbb732b960d11b60648201526084016109fd565b6001600160a01b0384166126305760405162461bcd60e51b815260206004820152602560248201527f455243373231413a207472616e7366657220746f20746865207a65726f206164604482015264647265737360d81b60648201526084016109fd565b612640600084846000015161243e565b6001600160a01b03851660009081526004602052604081208054600192906126729084906001600160801b0316613875565b82546101009290920a6001600160801b038181021990931691831602179091556001600160a01b038616600090815260046020526040812080546001945090926126be9185911661389d565b82546001600160801b039182166101009390930a9283029190920219909116179055506040805180820182526001600160a01b0380871682526001600160401b03428116602080850191825260008981526003909152948520935184549151909216600160a01b026001600160e01b03199091169190921617179055612745846001613671565b6000818152600360205260409020549091506001600160a01b03166127d65761276f816000541190565b156127d65760408051808201825284516001600160a01b0390811682526020808701516001600160401b039081168285019081526000878152600390935294909120925183549451909116600160a01b026001600160e01b03199094169116179190911790555b83856001600160a01b0316876001600160a01b03167fddf252ad1be2c89b69c2b068fc378daa952ba7f163c4a11628f55a4df523b3ef60405160405180910390a45b505050505050565b604080518082019091526000808252602082015261283f826000541190565b61289e5760405162461bcd60e51b815260206004820152602a60248201527f455243373231413a206f776e657220717565727920666f72206e6f6e657869736044820152693a32b73a103a37b5b2b760b11b60648201526084016109fd565b60007f000000000000000000000000000000000000000000000000000000000000000083106128ff576128f17f0000000000000000000000000000000000000000000000000000000000000000846135f4565b6128fc906001613671565b90505b825b818110612968576000818152600360209081526040918290208251808401909352546001600160a01b038116808452600160a01b9091046001600160401b0316918301919091521561295557949350505050565b5080612960816138c8565b915050612901565b5060405162461bcd60e51b815260206004820152602f60248201527f455243373231413a20756e61626c6520746f2064657465726d696e652074686560448201526e1037bbb732b91037b3103a37b5b2b760891b60648201526084016109fd565b6000826129d68584612c04565b14949350505050565b6110a4828260405180602001604052806000815250612c70565b60006001600160a01b0384163b15612aec57604051630a85bd0160e11b81526001600160a01b0385169063150b7a0290612a3d9033908990889088906004016138df565b6020604051808303816000875af1925050508015612a78575060408051601f3d908101601f19168201909252612a759181019061391c565b60015b612ad2573d808015612aa6576040519150601f19603f3d011682016040523d82523d6000602084013e612aab565b606091505b508051612aca5760405162461bcd60e51b81526004016109fd9061370c565b805181602001fd5b6001600160e01b031916630a85bd0160e11b149050612af0565b5060015b949350505050565b606081612b1c5750506040805180820190915260018152600360fc1b602082015290565b8160005b8115612b465780612b308161360b565b9150612b3f9050600a8361394f565b9150612b20565b6000816001600160401b03811115612b6057612b60613116565b6040519080825280601f01601f191660200182016040528015612b8a576020820181803683370190505b5090505b8415612af057612b9f6001836135f4565b9150612bac600a86613963565b612bb7906030613671565b60f81b818381518110612bcc57612bcc61365b565b60200101906001600160f81b031916908160001a905350612bee600a8661394f565b9450612b8e565b606060198054610a87906135a9565b600081815b8451811015611c25576000858281518110612c2657612c2661365b565b60200260200101519050808311612c4c5760008381526020829052604090209250612c5d565b600081815260208490526040902092505b5080612c688161360b565b915050612c09565b6000546001600160a01b038416612cd35760405162461bcd60e51b815260206004820152602160248201527f455243373231413a206d696e7420746f20746865207a65726f206164647265736044820152607360f81b60648201526084016109fd565b612cde816000541190565b15612d2b5760405162461bcd60e51b815260206004820152601d60248201527f455243373231413a20746f6b656e20616c7265616479206d696e74656400000060448201526064016109fd565b7f0000000000000000000000000000000000000000000000000000000000000000831115612da65760405162461bcd60e51b815260206004820152602260248201527f455243373231413a207175616e7469747920746f206d696e7420746f6f2068696044820152610ced60f31b60648201526084016109fd565b6001600160a01b0384166000908152600460209081526040918290208251808401845290546001600160801b038082168352600160801b9091041691810191909152815180830190925280519091908190612e0290879061389d565b6001600160801b03168152602001858360200151612e20919061389d565b6001600160801b039081169091526001600160a01b0380881660008181526004602090815260408083208751978301518716600160801b029790961696909617909455845180860186529182526001600160401b034281168386019081528883526003909552948120915182549451909516600160a01b026001600160e01b031990941694909216939093179190911790915582905b85811015612f3f5760405182906001600160a01b038916906000907fddf252ad1be2c89b69c2b068fc378daa952ba7f163c4a11628f55a4df523b3ef908290a4612f0360008884886129f9565b612f1f5760405162461bcd60e51b81526004016109fd9061370c565b81612f298161360b565b9250508080612f379061360b565b915050612eb6565b506000819055612818565b828054612f56906135a9565b90600052602060002090601f016020900481019282612f785760008555612fbe565b82601f10612f9157805160ff1916838001178555612fbe565b82800160010185558215612fbe579182015b82811115612fbe578251825591602001919060010190612fa3565b5061110c9291505b8082111561110c5760008155600101612fc6565b600060208284031215612fec57600080fd5b5035919050565b6001600160e01b03198116811461300957600080fd5b50565b60006020828403121561301e57600080fd5b81356120bf81612ff3565b60005b8381101561304457818101518382015260200161302c565b838111156117cd5750506000910152565b6000815180845261306d816020860160208601613029565b601f01601f19169290920160200192915050565b6020815260006120bf6020830184613055565b80356001600160a01b03811681146130ab57600080fd5b919050565b600080604083850312156130c357600080fd5b6130cc83613094565b946020939093013593505050565b6000806000606084860312156130ef57600080fd5b6130f884613094565b925061310660208501613094565b9150604084013590509250925092565b634e487b7160e01b600052604160045260246000fd5b604051601f8201601f191681016001600160401b038111828210171561315457613154613116565b604052919050565b60006001600160401b0383111561317557613175613116565b613188601f8401601f191660200161312c565b905082815283838301111561319c57600080fd5b828260208301376000602084830101529392505050565b600082601f8301126131c457600080fd5b6120bf8383356020850161315c565b600080604083850312156131e657600080fd5b82356001600160401b03808211156131fd57600080fd5b613209868387016131b3565b9350602085013591508082111561321f57600080fd5b5061322c858286016131b3565b9150509250929050565b60008083601f84011261324857600080fd5b5081356001600160401b0381111561325f57600080fd5b6020830191508360208260051b850101111561327a57600080fd5b9250929050565b6000806020838503121561329457600080fd5b82356001600160401b038111156132aa57600080fd5b6132b685828601613236565b90969095509350505050565b600060208083850312156132d557600080fd5b82356001600160401b03808211156132ec57600080fd5b818501915085601f83011261330057600080fd5b81358181111561331257613312613116565b8060051b915061332384830161312c565b818152918301840191848101908884111561333d57600080fd5b938501935b838510156133625761335385613094565b82529385019390850190613342565b98975050505050505050565b60006020828403121561338057600080fd5b6120bf82613094565b803580151581146130ab57600080fd5b6000602082840312156133ab57600080fd5b6120bf82613389565b6000806000604084860312156133c957600080fd5b8335925060208401356001600160401b038111156133e657600080fd5b6133f286828701613236565b9497909650939450505050565b6020808252825182820181905260009190848201906040850190845b818110156134405783516001600160a01b03168352928401929184019160010161341b565b50909695505050505050565b6020808252825182820181905260009190848201906040850190845b8181101561344057835183529284019291840191600101613468565b6000806040838503121561349757600080fd5b50508035926020909101359150565b600080604083850312156134b957600080fd5b6134c283613094565b91506134d060208401613389565b90509250929050565b600080600080608085870312156134ef57600080fd5b6134f885613094565b935061350660208601613094565b92506040850135915060608501356001600160401b0381111561352857600080fd5b8501601f8101871361353957600080fd5b6135488782356020840161315c565b91505092959194509250565b6000806040838503121561356757600080fd5b61357083613094565b91506134d060208401613094565b6020808252601190820152702ca7aa9020a922902727aa1020a226a4a760791b604082015260600190565b600181811c908216806135bd57607f821691505b60208210811415611cb757634e487b7160e01b600052602260045260246000fd5b634e487b7160e01b600052601160045260246000fd5b600082821015613606576136066135de565b500390565b600060001982141561361f5761361f6135de565b5060010190565b6020808252818101527f4f776e61626c653a2063616c6c6572206973206e6f7420746865206f776e6572604082015260600190565b634e487b7160e01b600052603260045260246000fd5b60008219821115613684576136846135de565b500190565b634e487b7160e01b600052603160045260246000fd5b60008160001904831182151516156136b9576136b96135de565b500290565b6020808252602e908201527f496e636f72726563742070726963652c20706c6561736520726566726573682060408201526d30b732103a393c9030b3b0b4b71760911b606082015260800190565b60208082526033908201527f455243373231413a207472616e7366657220746f206e6f6e204552433732315260408201527232b1b2b4bb32b91034b6b83632b6b2b73a32b960691b606082015260800190565b60008151613771818560208601613029565b9290920192915050565b600080845481600182811c91508083168061379757607f831692505b60208084108214156137b757634e487b7160e01b86526022600452602486fd5b8180156137cb57600181146137dc57613809565b60ff19861689528489019650613809565b60008b81526020902060005b868110156138015781548b8201529085019083016137e8565b505084890196505b50505050505061382d61381c828661375f565b64173539b7b760d91b815260050190565b95945050505050565b60008351613848818460208801613029565b83519083019061385c818360208801613029565b64173539b7b760d91b9101908152600501949350505050565b60006001600160801b0383811690831681811015613895576138956135de565b039392505050565b60006001600160801b038083168185168083038211156138bf576138bf6135de565b01949350505050565b6000816138d7576138d76135de565b506000190190565b6001600160a01b038581168252841660208201526040810183905260806060820181905260009061391290830184613055565b9695505050505050565b60006020828403121561392e57600080fd5b81516120bf81612ff3565b634e487b7160e01b600052601260045260246000fd5b60008261395e5761395e613939565b500490565b60008261397257613972613939565b50069056fea26469706673582212206bc95beabc3f558e7473f6d78678f594e31fda96a12b22f9b6138abe841d07ff64736f6c634300080a0033",
  "linkReferences": {},
  "deployedLinkReferences": {}
}